{
  "address": "0x52cF7984C81b14178B58A3019E3e2D010487F85B",
  "abi": [
    {
      "inputs": [],
      "stateMutability": "nonpayable",
      "type": "constructor"
    },
    {
      "inputs": [
        {
          "internalType": "address",
          "name": "_account",
          "type": "address"
        }
      ],
      "name": "NotProjectOwner",
      "type": "error"
    },
    {
      "anonymous": false,
      "inputs": [
        {
          "indexed": true,
          "internalType": "address",
          "name": "_donator",
          "type": "address"
        },
        {
          "indexed": true,
          "internalType": "contract IERC20",
          "name": "_token",
          "type": "address"
        },
        {
          "indexed": false,
          "internalType": "uint256",
          "name": "_amount",
          "type": "uint256"
        }
      ],
      "name": "Donation",
      "type": "event"
    },
    {
      "anonymous": false,
      "inputs": [
        {
          "indexed": true,
          "internalType": "address",
          "name": "_donator",
          "type": "address"
        },
        {
          "indexed": true,
          "internalType": "contract IERC20",
          "name": "_token",
          "type": "address"
        },
        {
          "indexed": false,
          "internalType": "uint256",
          "name": "_amount",
          "type": "uint256"
        },
        {
          "indexed": false,
          "internalType": "string",
          "name": "_invoiceData",
          "type": "string"
        }
      ],
      "name": "DonationInvoice",
      "type": "event"
    },
    {
      "anonymous": false,
      "inputs": [
        {
          "indexed": true,
          "internalType": "address",
          "name": "_projectOwner",
          "type": "address"
        },
        {
          "indexed": true,
          "internalType": "uint256",
          "name": "_projectId",
          "type": "uint256"
        },
        {
          "indexed": true,
          "internalType": "contract IERC20",
          "name": "_token",
          "type": "address"
        },
        {
          "indexed": false,
          "internalType": "uint256",
          "name": "_amount",
          "type": "uint256"
        },
        {
          "indexed": false,
          "internalType": "string",
          "name": "_achievement",
          "type": "string"
        }
      ],
      "name": "NewWithdrawOrder",
      "type": "event"
    },
    {
      "anonymous": false,
      "inputs": [
        {
          "indexed": true,
          "internalType": "address",
          "name": "previousOwner",
          "type": "address"
        },
        {
          "indexed": true,
          "internalType": "address",
          "name": "newOwner",
          "type": "address"
        }
      ],
      "name": "OwnershipTransferred",
      "type": "event"
    },
    {
      "anonymous": false,
      "inputs": [
        {
          "indexed": true,
          "internalType": "address",
          "name": "_projectOwner",
          "type": "address"
        },
        {
          "indexed": false,
          "internalType": "bool",
          "name": "giveFunds",
          "type": "bool"
        },
        {
          "indexed": true,
          "internalType": "uint256",
          "name": "_projectId",
          "type": "uint256"
        },
        {
          "indexed": true,
          "internalType": "contract IERC20",
          "name": "_token",
          "type": "address"
        },
        {
          "indexed": false,
          "internalType": "uint256",
          "name": "_amount",
          "type": "uint256"
        },
        {
          "indexed": false,
          "internalType": "string",
          "name": "_evaluation",
          "type": "string"
        }
      ],
      "name": "ReleasedFunds",
      "type": "event"
    },
    {
      "inputs": [],
      "name": "MAX_DONATION_CATEGORY",
      "outputs": [
        {
          "internalType": "uint16",
          "name": "",
          "type": "uint16"
        }
      ],
      "stateMutability": "view",
      "type": "function"
    },
    {
      "inputs": [
        {
          "internalType": "address",
          "name": "_account",
          "type": "address"
        }
      ],
      "name": "addCurator",
      "outputs": [],
      "stateMutability": "nonpayable",
      "type": "function"
    },
    {
      "inputs": [
        {
          "internalType": "contract IERC20",
          "name": "_token",
          "type": "address"
        }
      ],
      "name": "addValidToken",
      "outputs": [],
      "stateMutability": "nonpayable",
      "type": "function"
    },
    {
      "inputs": [
        {
          "internalType": "uint256",
          "name": "",
          "type": "uint256"
        },
        {
          "internalType": "address",
          "name": "",
          "type": "address"
        }
      ],
      "name": "balances",
      "outputs": [
        {
          "internalType": "uint256",
          "name": "",
          "type": "uint256"
        }
      ],
      "stateMutability": "view",
      "type": "function"
    },
    {
      "inputs": [
        {
          "internalType": "address",
          "name": "_owner",
          "type": "address"
        },
        {
          "internalType": "string",
          "name": "_description",
          "type": "string"
        },
        {
          "internalType": "uint16",
          "name": "_category",
          "type": "uint16"
        },
        {
          "internalType": "string",
          "name": "goal1",
          "type": "string"
        },
        {
          "internalType": "string",
          "name": "goal2",
          "type": "string"
        },
        {
          "internalType": "string",
          "name": "goal3",
          "type": "string"
        }
      ],
      "name": "createProject",
      "outputs": [],
      "stateMutability": "nonpayable",
      "type": "function"
    },
    {
      "inputs": [
        {
          "internalType": "contract IERC20",
          "name": "_token",
          "type": "address"
        },
        {
          "internalType": "uint256",
          "name": "_amount",
          "type": "uint256"
        },
        {
          "internalType": "uint256",
          "name": "_projectId",
          "type": "uint256"
        }
      ],
      "name": "donate",
      "outputs": [],
      "stateMutability": "nonpayable",
      "type": "function"
    },
    {
      "inputs": [
        {
          "internalType": "contract IERC20",
          "name": "_token",
          "type": "address"
        },
        {
          "internalType": "uint256",
          "name": "_amount",
          "type": "uint256"
        },
        {
          "internalType": "uint256",
          "name": "_projectId",
          "type": "uint256"
        },
        {
          "internalType": "string",
          "name": "_invoiceData",
          "type": "string"
        }
      ],
      "name": "donateEnteprise",
      "outputs": [],
      "stateMutability": "nonpayable",
      "type": "function"
    },
    {
      "inputs": [
        {
          "internalType": "address",
          "name": "_account",
          "type": "address"
        }
      ],
      "name": "isCurator",
      "outputs": [
        {
          "internalType": "bool",
          "name": "",
          "type": "bool"
        }
      ],
      "stateMutability": "view",
      "type": "function"
    },
    {
      "inputs": [],
      "name": "owner",
      "outputs": [
        {
          "internalType": "address",
          "name": "",
          "type": "address"
        }
      ],
      "stateMutability": "view",
      "type": "function"
    },
    {
      "inputs": [
        {
          "internalType": "uint256",
          "name": "",
          "type": "uint256"
        }
      ],
      "name": "projects",
      "outputs": [
        {
          "internalType": "address",
          "name": "owner",
          "type": "address"
        },
        {
          "internalType": "uint16",
          "name": "category",
          "type": "uint16"
        },
        {
          "internalType": "string",
          "name": "description",
          "type": "string"
        },
        {
          "internalType": "string",
          "name": "goal1",
          "type": "string"
        },
        {
          "internalType": "string",
          "name": "goal2",
          "type": "string"
        },
        {
          "internalType": "string",
          "name": "goal3",
          "type": "string"
        }
      ],
      "stateMutability": "view",
      "type": "function"
    },
    {
      "inputs": [
        {
          "internalType": "uint256",
          "name": "_projectId",
          "type": "uint256"
        },
        {
          "internalType": "contract IERC20",
          "name": "_token",
          "type": "address"
        },
        {
          "internalType": "bool",
          "name": "giveFunds",
          "type": "bool"
        },
        {
          "internalType": "string",
          "name": "_evaluation",
          "type": "string"
        }
      ],
      "name": "releaseFunds",
      "outputs": [],
      "stateMutability": "nonpayable",
      "type": "function"
    },
    {
      "inputs": [
        {
          "internalType": "address",
          "name": "_account",
          "type": "address"
        }
      ],
      "name": "removeCurator",
      "outputs": [],
      "stateMutability": "nonpayable",
      "type": "function"
    },
    {
      "inputs": [
        {
          "internalType": "contract IERC20",
          "name": "_token",
          "type": "address"
        }
      ],
      "name": "removeValidToken",
      "outputs": [],
      "stateMutability": "nonpayable",
      "type": "function"
    },
    {
      "inputs": [],
      "name": "renounceOwnership",
      "outputs": [],
      "stateMutability": "nonpayable",
      "type": "function"
    },
    {
      "inputs": [
        {
          "internalType": "uint256",
          "name": "_projectId",
          "type": "uint256"
        },
        {
          "internalType": "contract IERC20",
          "name": "_token",
          "type": "address"
        },
        {
          "internalType": "uint256",
          "name": "_amount",
          "type": "uint256"
        },
        {
          "internalType": "string",
          "name": "_achievement",
          "type": "string"
        }
      ],
      "name": "requestWithdraw",
      "outputs": [],
      "stateMutability": "nonpayable",
      "type": "function"
    },
    {
      "inputs": [
        {
          "internalType": "address",
          "name": "newOwner",
          "type": "address"
        }
      ],
      "name": "transferOwnership",
      "outputs": [],
      "stateMutability": "nonpayable",
      "type": "function"
    },
    {
      "inputs": [
        {
          "internalType": "address",
          "name": "",
          "type": "address"
        }
      ],
      "name": "validTokens",
      "outputs": [
        {
          "internalType": "bool",
          "name": "",
          "type": "bool"
        }
      ],
      "stateMutability": "view",
      "type": "function"
    },
    {
      "inputs": [
        {
          "internalType": "uint256",
          "name": "_projectId",
          "type": "uint256"
        }
      ],
      "name": "viewProject",
      "outputs": [
        {
          "components": [
            {
              "internalType": "address",
              "name": "owner",
              "type": "address"
            },
            {
              "internalType": "uint16",
              "name": "category",
              "type": "uint16"
            },
            {
              "internalType": "string",
              "name": "description",
              "type": "string"
            },
            {
              "internalType": "string",
              "name": "goal1",
              "type": "string"
            },
            {
              "internalType": "string",
              "name": "goal2",
              "type": "string"
            },
            {
              "internalType": "string",
              "name": "goal3",
              "type": "string"
            }
          ],
          "internalType": "struct Project",
          "name": "",
          "type": "tuple"
        }
      ],
      "stateMutability": "view",
      "type": "function"
    },
    {
      "inputs": [
        {
          "internalType": "uint256",
          "name": "",
          "type": "uint256"
        },
        {
          "internalType": "address",
          "name": "",
          "type": "address"
        }
      ],
      "name": "withdrawOrder",
      "outputs": [
        {
          "internalType": "uint256",
          "name": "",
          "type": "uint256"
        }
      ],
      "stateMutability": "view",
      "type": "function"
    }
  ],
  "transactionHash": "0xcaf781b7769b670ce139518d7db61ce252d029b2e7948c9f4548a3e5d4ba2919",
  "args": [],
  "numDeployments": 2,
  "solcInputHash": "88e15e6c335bddeea70ba14e240c81b9",
  "bytecode": "0x608060405234801561001057600080fd5b5061001a3361001f565b61006f565b600080546001600160a01b038381166001600160a01b0319831681178455604051919092169283917f8be0079c531659141344cd1fd0a4f28419497f9722a3daafe3b4186f6b6457e09190a35050565b611d508061007e6000396000f3fe608060405234801561001057600080fd5b50600436106101215760003560e01c80636cc92642116100ad578063b30e2dc511610071578063b30e2dc5146102d8578063d463227614610307578063e12fb1b91461031a578063e43754921461033d578063f2fde38b1461035d57600080fd5b80636cc926421461027c578063715018a61461028f5780638da5cb5b1461029757806398f25c44146102b2578063aecd3bff146102c557600080fd5b806334f0e39e116100f457806334f0e39e146101d45780633ab6ad0d146101e75780634a6a884514610212578063640234bc1461022d5780636c7b79d41461024057600080fd5b8063107046bd146101265780631ad494f0146101545780631ebca1c7146101695780631f3203311461019b575b600080fd5b610139610134366004611646565b610370565b60405161014b969594939291906116af565b60405180910390f35b6101676101623660046117dc565b6105d6565b005b61016761017736600461183f565b6001600160a01b03166000908152600660205260409020805460ff19166001179055565b6101c66101a9366004611873565b600460209081526000928352604080842090915290825290205481565b60405190815260200161014b565b6101676101e236600461183f565b6108cb565b6101c66101f5366004611873565b600560209081526000928352604080842090915290825290205481565b61021a600381565b60405161ffff909116815260200161014b565b61016761023b3660046118b5565b6108f9565b61026c61024e36600461183f565b6001600160a01b031660009081526001602052604090205460ff1690565b604051901515815260200161014b565b61016761028a366004611982565b6109e1565b610167610a83565b6000546040516001600160a01b03909116815260200161014b565b6101676102c036600461183f565b610a97565b6101676102d33660046119db565b610abc565b6101676102e636600461183f565b6001600160a01b03166000908152600660205260409020805460ff19169055565b610167610315366004611a2f565b610e56565b61026c61032836600461183f565b60066020526000908152604090205460ff1681565b61035061034b366004611646565b610ef0565b60405161014b9190611a64565b61016761036b36600461183f565b6111c6565b600360205260009081526040902080546001820180546001600160a01b03831693600160a01b90930461ffff169291906103a990611b02565b80601f01602080910402602001604051908101604052809291908181526020018280546103d590611b02565b80156104225780601f106103f757610100808354040283529160200191610422565b820191906000526020600020905b81548152906001019060200180831161040557829003601f168201915b50505050509080600201805461043790611b02565b80601f016020809104026020016040519081016040528092919081815260200182805461046390611b02565b80156104b05780601f10610485576101008083540402835291602001916104b0565b820191906000526020600020905b81548152906001019060200180831161049357829003601f168201915b5050505050908060030180546104c590611b02565b80601f01602080910402602001604051908101604052809291908181526020018280546104f190611b02565b801561053e5780601f106105135761010080835404028352916020019161053e565b820191906000526020600020905b81548152906001019060200180831161052157829003601f168201915b50505050509080600401805461055390611b02565b80601f016020809104026020016040519081016040528092919081815260200182805461057f90611b02565b80156105cc5780601f106105a1576101008083540402835291602001916105cc565b820191906000526020600020905b8154815290600101906020018083116105af57829003601f168201915b5050505050905086565b6000848152600360209081526040808320815160c08101835281546001600160a01b0381168252600160a01b900461ffff1693810193909352600181018054919284019161062390611b02565b80601f016020809104026020016040519081016040528092919081815260200182805461064f90611b02565b801561069c5780601f106106715761010080835404028352916020019161069c565b820191906000526020600020905b81548152906001019060200180831161067f57829003601f168201915b505050505081526020016002820180546106b590611b02565b80601f01602080910402602001604051908101604052809291908181526020018280546106e190611b02565b801561072e5780601f106107035761010080835404028352916020019161072e565b820191906000526020600020905b81548152906001019060200180831161071157829003601f168201915b5050505050815260200160038201805461074790611b02565b80601f016020809104026020016040519081016040528092919081815260200182805461077390611b02565b80156107c05780601f10610795576101008083540402835291602001916107c0565b820191906000526020600020905b8154815290600101906020018083116107a357829003601f168201915b505050505081526020016004820180546107d990611b02565b80601f016020809104026020016040519081016040528092919081815260200182805461080590611b02565b80156108525780601f1061082757610100808354040283529160200191610852565b820191906000526020600020905b81548152906001019060200180831161083557829003601f168201915b5050509190925250505060008681526005602090815260408083206001600160a01b038916808552925291829020869055905191925090869033907fa0a558fed6fee3bea0e9c8d17dc0a9aee94b90e76d7a0ebaf743a212fde37815906108bc9088908890611b3c565b60405180910390a45050505050565b6108f6816001600160a01b03166000908152600160208190526040909120805460ff19169091179055565b50565b600280546000918261090a83611b6b565b909155506040805160c0810182526001600160a01b03808b16825261ffff808a1660208085019182528486018d8152606086018c9052608086018b905260a086018a905260008881526003909252959020845181549251909316600160a01b026001600160b01b0319909216929093169190911717815591519293509160018201906109969082611bd4565b50606082015160028201906109ab9082611bd4565b50608082015160038201906109c09082611bd4565b5060a082015160048201906109d59082611bd4565b50505050505050505050565b6109ea8461123c565b6109ff6001600160a01b038516333086611294565b60008281526004602090815260408083206001600160a01b038816845290915281208054859290610a31908490611c94565b90915550506040516001600160a01b0385169033907f6dc92d1786d0f67fd9cc9da93a2d78d51113e09eb2a2cc157dd3485bd84baa3a90610a759087908690611b3c565b60405180910390a350505050565b610a8b611305565b610a95600061135f565b565b6108f6816001600160a01b03166000908152600160205260409020805460ff19169055565b60008481526005602090815260408083206001600160a01b0387811680865291845282852054898652600485528386209286529184528285205489865260038552838620845160c08101865281549384168152600160a01b90930461ffff169583019590955260018501805493969195919492939192840191610b3e90611b02565b80601f0160208091040260200160405190810160405280929190818152602001828054610b6a90611b02565b8015610bb75780601f10610b8c57610100808354040283529160200191610bb7565b820191906000526020600020905b815481529060010190602001808311610b9a57829003601f168201915b50505050508152602001600282018054610bd090611b02565b80601f0160208091040260200160405190810160405280929190818152602001828054610bfc90611b02565b8015610c495780601f10610c1e57610100808354040283529160200191610c49565b820191906000526020600020905b815481529060010190602001808311610c2c57829003601f168201915b50505050508152602001600382018054610c6290611b02565b80601f0160208091040260200160405190810160405280929190818152602001828054610c8e90611b02565b8015610cdb5780601f10610cb057610100808354040283529160200191610cdb565b820191906000526020600020905b815481529060010190602001808311610cbe57829003601f168201915b50505050508152602001600482018054610cf490611b02565b80601f0160208091040260200160405190810160405280929190818152602001828054610d2090611b02565b8015610d6d5780601f10610d4257610100808354040283529160200191610d6d565b820191906000526020600020905b815481529060010190602001808311610d5057829003601f168201915b505050505081525050905081831115610dc05760405162461bcd60e51b815260206004820152601060248201526f4e6f74456e6f75676842616c616e636560801b60448201526064015b60405180910390fd5b8415610dfd5760008781526004602090815260408083206001600160a01b038a168085529252909120805485900390558151610dfd9190856113af565b856001600160a01b031687336001600160a01b03167f8d6222314393141e74b1b87e1cd64a99eb53e15d6bf44a799057efa27b4886e5888789604051610e4593929190611cad565b60405180910390a450505050505050565b610e5f8361123c565b610e746001600160a01b038416333085611294565b60008181526004602090815260408083206001600160a01b038716845290915281208054849290610ea6908490611c94565b90915550506040518281526001600160a01b0384169033907f597440e65d8cdea1298e19df50e115bda25508180452d87a7f4f99195fb843a49060200160405180910390a3505050565b610f366040518060c0016040528060006001600160a01b03168152602001600061ffff168152602001606081526020016060815260200160608152602001606081525090565b600082815260036020908152604091829020825160c08101845281546001600160a01b0381168252600160a01b900461ffff16928101929092526001810180549293919291840191610f8790611b02565b80601f0160208091040260200160405190810160405280929190818152602001828054610fb390611b02565b80156110005780601f10610fd557610100808354040283529160200191611000565b820191906000526020600020905b815481529060010190602001808311610fe357829003601f168201915b5050505050815260200160028201805461101990611b02565b80601f016020809104026020016040519081016040528092919081815260200182805461104590611b02565b80156110925780601f1061106757610100808354040283529160200191611092565b820191906000526020600020905b81548152906001019060200180831161107557829003601f168201915b505050505081526020016003820180546110ab90611b02565b80601f01602080910402602001604051908101604052809291908181526020018280546110d790611b02565b80156111245780601f106110f957610100808354040283529160200191611124565b820191906000526020600020905b81548152906001019060200180831161110757829003601f168201915b5050505050815260200160048201805461113d90611b02565b80601f016020809104026020016040519081016040528092919081815260200182805461116990611b02565b80156111b65780601f1061118b576101008083540402835291602001916111b6565b820191906000526020600020905b81548152906001019060200180831161119957829003601f168201915b5050505050815250509050919050565b6111ce611305565b6001600160a01b0381166112335760405162461bcd60e51b815260206004820152602660248201527f4f776e61626c653a206e6577206f776e657220697320746865207a65726f206160448201526564647265737360d01b6064820152608401610db7565b6108f68161135f565b6001600160a01b03811660009081526006602052604090205460ff166108f65760405162461bcd60e51b815260206004820152600d60248201526c24b73b30b634b2103a37b5b2b760991b6044820152606401610db7565b6040516001600160a01b03808516602483015283166044820152606481018290526112ff9085906323b872dd60e01b906084015b60408051601f198184030181529190526020810180516001600160e01b03166001600160e01b0319909316929092179091526113e4565b50505050565b6000546001600160a01b03163314610a955760405162461bcd60e51b815260206004820181905260248201527f4f776e61626c653a2063616c6c6572206973206e6f7420746865206f776e65726044820152606401610db7565b600080546001600160a01b038381166001600160a01b0319831681178455604051919092169283917f8be0079c531659141344cd1fd0a4f28419497f9722a3daafe3b4186f6b6457e09190a35050565b6040516001600160a01b0383166024820152604481018290526113df90849063a9059cbb60e01b906064016112c8565b505050565b6000611439826040518060400160405280602081526020017f5361666545524332303a206c6f772d6c6576656c2063616c6c206661696c6564815250856001600160a01b03166114b69092919063ffffffff16565b8051909150156113df57808060200190518101906114579190611cce565b6113df5760405162461bcd60e51b815260206004820152602a60248201527f5361666545524332303a204552433230206f7065726174696f6e20646964206e6044820152691bdd081cdd58d8d9595960b21b6064820152608401610db7565b60606114c584846000856114cd565b949350505050565b60608247101561152e5760405162461bcd60e51b815260206004820152602660248201527f416464726573733a20696e73756666696369656e742062616c616e636520666f6044820152651c8818d85b1b60d21b6064820152608401610db7565b600080866001600160a01b0316858760405161154a9190611ceb565b60006040518083038185875af1925050503d8060008114611587576040519150601f19603f3d011682016040523d82523d6000602084013e61158c565b606091505b509150915061159d878383876115a8565b979650505050505050565b60608315611617578251600003611610576001600160a01b0385163b6116105760405162461bcd60e51b815260206004820152601d60248201527f416464726573733a2063616c6c20746f206e6f6e2d636f6e74726163740000006044820152606401610db7565b50816114c5565b6114c5838381511561162c5781518083602001fd5b8060405162461bcd60e51b8152600401610db79190611d07565b60006020828403121561165857600080fd5b5035919050565b60005b8381101561167a578181015183820152602001611662565b50506000910152565b6000815180845261169b81602086016020860161165f565b601f01601f19169290920160200192915050565b6001600160a01b038716815261ffff8616602082015260c0604082018190526000906116dd90830187611683565b82810360608401526116ef8187611683565b905082810360808401526117038186611683565b905082810360a08401526117178185611683565b9998505050505050505050565b6001600160a01b03811681146108f657600080fd5b634e487b7160e01b600052604160045260246000fd5b600082601f83011261176057600080fd5b813567ffffffffffffffff8082111561177b5761177b611739565b604051601f8301601f19908116603f011681019082821181831017156117a3576117a3611739565b816040528381528660208588010111156117bc57600080fd5b836020870160208301376000602085830101528094505050505092915050565b600080600080608085870312156117f257600080fd5b84359350602085013561180481611724565b925060408501359150606085013567ffffffffffffffff81111561182757600080fd5b6118338782880161174f565b91505092959194509250565b60006020828403121561185157600080fd5b813561185c81611724565b9392505050565b803561186e81611724565b919050565b6000806040838503121561188657600080fd5b82359150602083013561189881611724565b809150509250929050565b803561ffff8116811461186e57600080fd5b60008060008060008060c087890312156118ce57600080fd5b6118d787611863565b9550602087013567ffffffffffffffff808211156118f457600080fd5b6119008a838b0161174f565b965061190e60408a016118a3565b9550606089013591508082111561192457600080fd5b6119308a838b0161174f565b9450608089013591508082111561194657600080fd5b6119528a838b0161174f565b935060a089013591508082111561196857600080fd5b5061197589828a0161174f565b9150509295509295509295565b6000806000806080858703121561199857600080fd5b84356119a381611724565b93506020850135925060408501359150606085013567ffffffffffffffff81111561182757600080fd5b80151581146108f657600080fd5b600080600080608085870312156119f157600080fd5b843593506020850135611a0381611724565b92506040850135611a13816119cd565b9150606085013567ffffffffffffffff81111561182757600080fd5b600080600060608486031215611a4457600080fd5b8335611a4f81611724565b95602085013595506040909401359392505050565b6020815260018060a01b03825116602082015261ffff60208301511660408201526000604083015160c06060840152611aa060e0840182611683565b90506060840151601f1980858403016080860152611abe8383611683565b925060808601519150808584030160a0860152611adb8383611683565b925060a08601519150808584030160c086015250611af98282611683565b95945050505050565b600181811c90821680611b1657607f821691505b602082108103611b3657634e487b7160e01b600052602260045260246000fd5b50919050565b8281526040602082015260006114c56040830184611683565b634e487b7160e01b600052601160045260246000fd5b600060018201611b7d57611b7d611b55565b5060010190565b601f8211156113df576000816000526020600020601f850160051c81016020861015611bad5750805b601f850160051c820191505b81811015611bcc57828155600101611bb9565b505050505050565b815167ffffffffffffffff811115611bee57611bee611739565b611c0281611bfc8454611b02565b84611b84565b602080601f831160018114611c375760008415611c1f5750858301515b600019600386901b1c1916600185901b178555611bcc565b600085815260208120601f198616915b82811015611c6657888601518255948401946001909101908401611c47565b5085821015611c845787850151600019600388901b60f8161c191681555b5050505050600190811b01905550565b80820180821115611ca757611ca7611b55565b92915050565b8315158152826020820152606060408201526000611af96060830184611683565b600060208284031215611ce057600080fd5b815161185c816119cd565b60008251611cfd81846020870161165f565b9190910192915050565b60208152600061185c602083018461168356fea2646970667358221220ba06d89bff7552a0a55ec07e74d59b91870b467d9cf7a60e15599f850e3705c264736f6c63430008180033",
  "devdoc": {
    "kind": "dev",
    "methods": {
      "owner()": {
        "details": "Returns the address of the current owner."
      },
      "renounceOwnership()": {
        "details": "Leaves the contract without owner. It will not be possible to call `onlyOwner` functions anymore. Can only be called by the current owner. NOTE: Renouncing ownership will leave the contract without an owner, thereby removing any functionality that is only available to the owner."
      },
      "transferOwnership(address)": {
        "details": "Transfers ownership of the contract to a new account (`newOwner`). Can only be called by the current owner."
      }
    },
    "version": 1
  },
  "userdoc": {
    "kind": "user",
    "methods": {
      "MAX_DONATION_CATEGORY()": {
        "notice": "donationCategory 0 - environment 1 - education 2 - social"
      },
      "addCurator(address)": {
        "notice": "********* * Owner * *********"
      },
      "balances(uint256,address)": {
        "notice": "projectId => token => amount"
      },
      "donate(address,uint256,uint256)": {
        "notice": "********** * Donate * **********"
      },
      "projects(uint256)": {
        "notice": "projectId => Project"
      },
      "releaseFunds(uint256,address,bool,string)": {
        "notice": "************ * Curators * ************"
      },
      "validTokens(address)": {
        "notice": "token => "
      },
      "viewProject(uint256)": {
        "notice": "*********** * Project * ***********"
      }
    },
    "version": 1
  },
  "storageLayout": {
    "storage": [
      {
        "astId": 7,
        "contract": "contracts/Impacta360.sol:Impacta360",
        "label": "_owner",
        "offset": 0,
        "slot": "0",
        "type": "t_address"
      },
      {
        "astId": 887,
        "contract": "contracts/Impacta360.sol:Impacta360",
        "label": "_curators",
        "offset": 0,
        "slot": "1",
        "type": "t_mapping(t_address,t_bool)"
      },
      {
        "astId": 950,
        "contract": "contracts/Impacta360.sol:Impacta360",
        "label": "_lastProjectId",
        "offset": 0,
        "slot": "2",
        "type": "t_uint256"
      },
      {
        "astId": 956,
        "contract": "contracts/Impacta360.sol:Impacta360",
        "label": "projects",
        "offset": 0,
        "slot": "3",
        "type": "t_mapping(t_uint256,t_struct(Project)883_storage)"
      },
      {
        "astId": 963,
        "contract": "contracts/Impacta360.sol:Impacta360",
        "label": "balances",
        "offset": 0,
        "slot": "4",
        "type": "t_mapping(t_uint256,t_mapping(t_address,t_uint256))"
      },
      {
        "astId": 969,
        "contract": "contracts/Impacta360.sol:Impacta360",
        "label": "withdrawOrder",
        "offset": 0,
        "slot": "5",
        "type": "t_mapping(t_uint256,t_mapping(t_address,t_uint256))"
      },
      {
        "astId": 974,
        "contract": "contracts/Impacta360.sol:Impacta360",
        "label": "validTokens",
        "offset": 0,
        "slot": "6",
        "type": "t_mapping(t_address,t_bool)"
      }
    ],
    "types": {
      "t_address": {
        "encoding": "inplace",
        "label": "address",
        "numberOfBytes": "20"
      },
      "t_bool": {
        "encoding": "inplace",
        "label": "bool",
        "numberOfBytes": "1"
      },
      "t_mapping(t_address,t_bool)": {
        "encoding": "mapping",
        "key": "t_address",
        "label": "mapping(address => bool)",
        "numberOfBytes": "32",
        "value": "t_bool"
      },
      "t_mapping(t_address,t_uint256)": {
        "encoding": "mapping",
        "key": "t_address",
        "label": "mapping(address => uint256)",
        "numberOfBytes": "32",
        "value": "t_uint256"
      },
      "t_mapping(t_uint256,t_mapping(t_address,t_uint256))": {
        "encoding": "mapping",
        "key": "t_uint256",
        "label": "mapping(uint256 => mapping(address => uint256))",
        "numberOfBytes": "32",
        "value": "t_mapping(t_address,t_uint256)"
      },
      "t_mapping(t_uint256,t_struct(Project)883_storage)": {
        "encoding": "mapping",
        "key": "t_uint256",
        "label": "mapping(uint256 => struct Project)",
        "numberOfBytes": "32",
        "value": "t_struct(Project)883_storage"
      },
      "t_string_storage": {
        "encoding": "bytes",
        "label": "string",
        "numberOfBytes": "32"
      },
      "t_struct(Project)883_storage": {
        "encoding": "inplace",
        "label": "struct Project",
        "members": [
          {
            "astId": 872,
            "contract": "contracts/Impacta360.sol:Impacta360",
            "label": "owner",
            "offset": 0,
            "slot": "0",
            "type": "t_address"
          },
          {
            "astId": 874,
            "contract": "contracts/Impacta360.sol:Impacta360",
            "label": "category",
            "offset": 20,
            "slot": "0",
            "type": "t_uint16"
          },
          {
            "astId": 876,
            "contract": "contracts/Impacta360.sol:Impacta360",
            "label": "description",
            "offset": 0,
            "slot": "1",
            "type": "t_string_storage"
          },
          {
            "astId": 878,
            "contract": "contracts/Impacta360.sol:Impacta360",
            "label": "goal1",
            "offset": 0,
            "slot": "2",
            "type": "t_string_storage"
          },
          {
            "astId": 880,
            "contract": "contracts/Impacta360.sol:Impacta360",
            "label": "goal2",
            "offset": 0,
            "slot": "3",
            "type": "t_string_storage"
          },
          {
            "astId": 882,
            "contract": "contracts/Impacta360.sol:Impacta360",
            "label": "goal3",
            "offset": 0,
            "slot": "4",
            "type": "t_string_storage"
          }
        ],
        "numberOfBytes": "160"
      },
      "t_uint16": {
        "encoding": "inplace",
        "label": "uint16",
        "numberOfBytes": "2"
      },
      "t_uint256": {
        "encoding": "inplace",
        "label": "uint256",
        "numberOfBytes": "32"
      }
    }
  }
}